{
  "contractName": "CSC4860TokenCrowdsale",
  "abi": [
    {
      "inputs": [
        {
          "internalType": "uint256",
          "name": "_rate",
          "type": "uint256"
        },
        {
          "internalType": "address payable",
          "name": "_wallet",
          "type": "address"
        },
        {
          "internalType": "contract ERC20",
          "name": "_token",
          "type": "address"
        },
        {
          "internalType": "uint256",
          "name": "_cap",
          "type": "uint256"
        }
      ],
      "payable": false,
      "stateMutability": "nonpayable",
      "type": "constructor"
    },
    {
      "anonymous": false,
      "inputs": [
        {
          "indexed": true,
          "internalType": "address",
          "name": "purchaser",
          "type": "address"
        },
        {
          "indexed": true,
          "internalType": "address",
          "name": "beneficiary",
          "type": "address"
        },
        {
          "indexed": false,
          "internalType": "uint256",
          "name": "value",
          "type": "uint256"
        },
        {
          "indexed": false,
          "internalType": "uint256",
          "name": "amount",
          "type": "uint256"
        }
      ],
      "name": "TokenPurchase",
      "type": "event"
    },
    {
      "anonymous": false,
      "inputs": [
        {
          "indexed": true,
          "internalType": "address",
          "name": "purchaser",
          "type": "address"
        },
        {
          "indexed": true,
          "internalType": "address",
          "name": "beneficiary",
          "type": "address"
        },
        {
          "indexed": false,
          "internalType": "uint256",
          "name": "value",
          "type": "uint256"
        },
        {
          "indexed": false,
          "internalType": "uint256",
          "name": "amount",
          "type": "uint256"
        }
      ],
      "name": "TokensPurchased",
      "type": "event"
    },
    {
      "payable": true,
      "stateMutability": "payable",
      "type": "fallback"
    },
    {
      "constant": true,
      "inputs": [],
      "name": "cap",
      "outputs": [
        {
          "internalType": "uint256",
          "name": "",
          "type": "uint256"
        }
      ],
      "payable": false,
      "stateMutability": "view",
      "type": "function"
    },
    {
      "constant": true,
      "inputs": [],
      "name": "capReached",
      "outputs": [
        {
          "internalType": "bool",
          "name": "",
          "type": "bool"
        }
      ],
      "payable": false,
      "stateMutability": "view",
      "type": "function"
    },
    {
      "constant": true,
      "inputs": [
        {
          "internalType": "address",
          "name": "",
          "type": "address"
        }
      ],
      "name": "contributions",
      "outputs": [
        {
          "internalType": "uint256",
          "name": "",
          "type": "uint256"
        }
      ],
      "payable": false,
      "stateMutability": "view",
      "type": "function"
    },
    {
      "constant": true,
      "inputs": [],
      "name": "investorHardCap",
      "outputs": [
        {
          "internalType": "uint256",
          "name": "",
          "type": "uint256"
        }
      ],
      "payable": false,
      "stateMutability": "view",
      "type": "function"
    },
    {
      "constant": true,
      "inputs": [],
      "name": "investorMinCap",
      "outputs": [
        {
          "internalType": "uint256",
          "name": "",
          "type": "uint256"
        }
      ],
      "payable": false,
      "stateMutability": "view",
      "type": "function"
    },
    {
      "constant": true,
      "inputs": [],
      "name": "rate",
      "outputs": [
        {
          "internalType": "uint256",
          "name": "",
          "type": "uint256"
        }
      ],
      "payable": false,
      "stateMutability": "view",
      "type": "function"
    },
    {
      "constant": true,
      "inputs": [],
      "name": "token",
      "outputs": [
        {
          "internalType": "contract IERC20",
          "name": "",
          "type": "address"
        }
      ],
      "payable": false,
      "stateMutability": "view",
      "type": "function"
    },
    {
      "constant": true,
      "inputs": [],
      "name": "wallet",
      "outputs": [
        {
          "internalType": "address payable",
          "name": "",
          "type": "address"
        }
      ],
      "payable": false,
      "stateMutability": "view",
      "type": "function"
    },
    {
      "constant": true,
      "inputs": [],
      "name": "weiRaised",
      "outputs": [
        {
          "internalType": "uint256",
          "name": "",
          "type": "uint256"
        }
      ],
      "payable": false,
      "stateMutability": "view",
      "type": "function"
    },
    {
      "constant": true,
      "inputs": [],
      "name": "getTokensLeft",
      "outputs": [
        {
          "internalType": "uint256",
          "name": "",
          "type": "uint256"
        }
      ],
      "payable": false,
      "stateMutability": "view",
      "type": "function"
    },
    {
      "constant": false,
      "inputs": [
        {
          "internalType": "address",
          "name": "_beneficiary",
          "type": "address"
        }
      ],
      "name": "buyTokens",
      "outputs": [],
      "payable": true,
      "stateMutability": "payable",
      "type": "function"
    }
  ],
  "bytecode": "0x60806040526803cb71f51fc5580000600555681b1ae4d6e2ef5000006006556000600755600060085534801561003457600080fd5b5060405161094d38038061094d8339818101604052608081101561005757600080fd5b508051602082015160408301516060909301516000805460ff191660011790559192909180848484826100d1576040805162461bcd60e51b815260206004820152601460248201527f43726f776473616c653a20726174652069732030000000000000000000000000604482015290519081900360640190fd5b6001600160a01b0382166101165760405162461bcd60e51b81526004018080602001828103825260258152602001806109286025913960400191505060405180910390fd5b6001600160a01b03811661015b5760405162461bcd60e51b81526004018080602001828103825260248152602001806109046024913960400191505060405180910390fd5b600292909255600180546001600160a01b039283166001600160a01b0319909116179055600080549190921661010002610100600160a81b0319909116179055806101ed576040805162461bcd60e51b815260206004820152601960248201527f43617070656443726f776473616c653a20636170206973203000000000000000604482015290519081900360640190fd5b60045590920260085550506106fd806102076000396000f3fe60806040526004361061009c5760003560e01c8063521eb27311610064578063521eb27314610154578063b25d7f5414610185578063de5f98661461019a578063ec8ac4d8146101af578063ed5db874146101d5578063fc0c546a146101ea5761009c565b80632c4e722e146100a7578063355274ea146100ce5780634042b66f146100e357806342e94c90146100f85780634f9359451461012b575b6100a5336101ff565b005b3480156100b357600080fd5b506100bc61028a565b60408051918252519081900360200190f35b3480156100da57600080fd5b506100bc610290565b3480156100ef57600080fd5b506100bc610296565b34801561010457600080fd5b506100bc6004803603602081101561011b57600080fd5b50356001600160a01b031661029c565b34801561013757600080fd5b506101406102ae565b604080519115158252519081900360200190f35b34801561016057600080fd5b506101696102c2565b604080516001600160a01b039092168252519081900360200190f35b34801561019157600080fd5b506100bc6102d1565b3480156101a657600080fd5b506100bc6102d7565b6100a5600480360360208110156101c557600080fd5b50356001600160a01b03166101ff565b3480156101e157600080fd5b506100bc6102f6565b3480156101f657600080fd5b506101696102fc565b3461020a8282610310565b600061021582610369565b90506102218382610386565b604080518381526020810183905281516001600160a01b0386169233927f623b3804fa71d67900d064613da8f94b9617215ee90799290593e1745087ad18929081900390910190a36102738383610390565b61027b610394565b6102858383610390565b505050565b60025490565b60045490565b60035490565b60096020526000908152604090205481565b60006004546102bb610296565b1015905090565b6001546001600160a01b031690565b60055481565b6000670de0b6b3a764000060075460085403816102f057fe5b04905090565b60065481565b60005461010090046001600160a01b031690565b61031a82826103d0565b6001600160a01b03821660009081526009602052604081205490610344828463ffffffff61044816565b9050600554811015801561035a57506006548111155b61036357600080fd5b50505050565b6000610380600254836104a990919063ffffffff16565b92915050565b6103908282610502565b5050565b6001546040516001600160a01b03909116903480156108fc02916000818181858888f193505050501580156103cd573d6000803e3d6000fd5b50565b6103da82826105e6565b6004546103f5826103e9610296565b9063ffffffff61044816565b1115610390576040805162461bcd60e51b815260206004820152601d60248201527f43617070656443726f776473616c653a20636170206578636565646564000000604482015290519081900360640190fd5b6000828201838110156104a2576040805162461bcd60e51b815260206004820152601b60248201527f536166654d6174683a206164646974696f6e206f766572666c6f770000000000604482015290519081900360640190fd5b9392505050565b6000826104b857506000610380565b828202828482816104c557fe5b04146104a25760405162461bcd60e51b815260040180806020018281038252602181526020018061067e6021913960400191505060405180910390fd5b61050a6102fc565b6001600160a01b03166340c10f1983836040518363ffffffff1660e01b815260040180836001600160a01b03166001600160a01b0316815260200182815260200192505050602060405180830381600087803b15801561056957600080fd5b505af115801561057d573d6000803e3d6000fd5b505050506040513d602081101561059357600080fd5b5051610390576040805162461bcd60e51b815260206004820152601f60248201527f4d696e74656443726f776473616c653a206d696e74696e67206661696c656400604482015290519081900360640190fd5b6001600160a01b03821661062b5760405162461bcd60e51b815260040180806020018281038252602a81526020018061069f602a913960400191505060405180910390fd5b80610390576040805162461bcd60e51b815260206004820152601960248201527f43726f776473616c653a20776569416d6f756e74206973203000000000000000604482015290519081900360640190fdfe536166654d6174683a206d756c7469706c69636174696f6e206f766572666c6f7743726f776473616c653a2062656e656669636961727920697320746865207a65726f2061646472657373a265627a7a723158208d569548328500368533d26f1b503dca9d217f904e78c96156242cfbf1623a9664736f6c6343000510003243726f776473616c653a20746f6b656e20697320746865207a65726f206164647265737343726f776473616c653a2077616c6c657420697320746865207a65726f2061646472657373",
  "source": "pragma solidity ^0.5.16;\n\n\nimport \"openzeppelin-solidity/contracts/crowdsale/Crowdsale.sol\";\nimport \"openzeppelin-solidity/contracts/crowdsale/emission/MintedCrowdsale.sol\";\nimport \"openzeppelin-solidity/contracts/crowdsale/validation/CappedCrowdsale.sol\";\n//import \"../build/contracts/CSC4980Token.sol\";\n\n\ncontract CSC4860TokenCrowdsale is Crowdsale, MintedCrowdsale, CappedCrowdsale{\n\n\tusing SafeMath for uint256;\n\tusing SafeERC20 for ERC20;\n\n\t//minimum investor Contribution - 7 ether\n\tuint256 public investorMinCap = 70000000000000000000;\n\tuint256 public investorHardCap = 500000000000000000000;\n\tuint256 private tokenSold = 0;\n\tuint256 private tokensavailable = 0;\n\n\tevent TokenPurchase(\n    address indexed purchaser,\n    address indexed beneficiary,\n    uint256 value,\n    uint256 amount\n\t);\n\t\n\tmapping(address => uint256) public contributions;\n\n\tconstructor(\n\t\tuint256 _rate,\n\t\taddress payable _wallet,\n\t\tERC20 _token,\n\t\tuint256 _cap\n\t\t)\t\n\n\tCrowdsale(_rate, _wallet, _token)\n\tCappedCrowdsale(_cap)\n\tpublic{\n\ttokensavailable = _cap*_rate;\n\n\t}\n\t\n\tfunction () external payable {\n    buyTokens(msg.sender);\n\t}\n\tfunction getTokensLeft() view public returns (uint256) {\n\t\treturn (tokensavailable - tokenSold) / 1000000000000000000;\n\t}\n\tfunction buyTokens(address _beneficiary) public payable {\n\t\tuint256 weiAmount = msg.value;\n    \t_preValidatePurchase(_beneficiary, weiAmount);\n\t\tuint256 tokens = _getTokenAmount(weiAmount);\n\t\t_processPurchase(_beneficiary, tokens);\n    \temit TokenPurchase(\n    \tmsg.sender,\n    \t_beneficiary,\n    \tweiAmount,\n    \ttokens\n    );\n\t_updatePurchasingState(_beneficiary, weiAmount);\n\n\t_forwardFunds();\n    \t_postValidatePurchase(_beneficiary, weiAmount);\n\t}\n\n\tfunction _preValidatePurchase( address _beneficiary, uint256 _weiAmount ) internal view\n  {\n    super._preValidatePurchase(_beneficiary, _weiAmount);\n\tuint256 _existingContribution = contributions[_beneficiary];\n  \tuint256 _newContribution = _existingContribution.add(_weiAmount);\n\trequire(_newContribution >= investorMinCap && _newContribution <= investorHardCap);\n\t}\n\n\tfunction _updatePurchasingState(address _beneficiary,uint256 _weiAmount) internal\n\t{\n    // optional override\n\t}\n\t\n\n}",
  "sourcePath": "/home/tai/Code_Projects/CSC4980/contracts/GSUCrowdsale.sol",
  "compiler": {
    "name": "solc",
    "version": "0.5.16+commit.9c3226ce.Emscripten.clang"
  },
  "schemaVersion": "3.0.23",
  "updatedAt": "2020-04-02T02:00:50.792Z",
  "networkType": "ethereum",
  "devdoc": {
    "methods": {
      "cap()": {
        "return": "the cap of the crowdsale."
      },
      "capReached()": {
        "details": "Checks whether the cap has been reached.",
        "return": "Whether the cap was reached"
      },
      "rate()": {
        "return": "the number of token units a buyer gets per wei."
      },
      "token()": {
        "return": "the token being sold."
      },
      "wallet()": {
        "return": "the address where funds are collected."
      },
      "weiRaised()": {
        "return": "the amount of wei raised."
      }
    }
  },
  "userdoc": {
    "methods": {}
  }
}